:1000000002C1000030C100002EC100002CC1000060
:100010002AC1000028C1000026C1000024C1000040
:1000200022C1000020C100001EC100001CC1000050
:100030001AC1000018C1000016C1000014C1000060
:1000400012C10000F8C700000EC100000CC1000082
:100050000AC1000008C1000006C100001BC7000063
:1000600002C10000E1C60000B6C60000FCC00000EE
:10007000FAC00000F8C00000F6C00000F4C00000A4
:10008000ADC70000F0C00000EEC00000ECC00000F2
:10009000EAC00000E8C00000E6C00000E4C00000C4
:1000A000E2C00000E0C000006CC70000DCC000003F
:1000B000DAC00000D8C00000D6C0000035C700007C
:1000C000D2C00000D0C00000CEC00000CCC00000F4
:1000D000CAC00000C8C00000C6C00000C4C0000004
:1000E000C2C0000000002100240027002A002D00CB
:1000F0003000330001010000040107010A01000083
:100100002200250028002B002E00310034000201BF
:100110000000050108010B0100002000230026005B
:1001200029002C002F00320000010000030106010D
:10013000090105050505070508080808020202026D
:100140000A0A080804040404010101010101010173
:100150000303030303030303040707070C0C0C0C3E
:100160000C0C0C0C02020202060606060606060627
:100170000B0B0B0B0B0B0B0B0102102020080810B4
:100180002040102040800201020108040201010207
:1001900004081020408080402010080402018004E0
:1001A000020180402010080402010804020101023B
:1001B0000408102040800102040810204080000044
:1001C0000A0B02090C0D0E080703040100000000D1
:1001D000000000000000000000000000000000001F
:1001E00000000000000000000000121110000000DC
:1001F00000000000000000000000000000000000FF
:1002000000000000480811241FBECFEFD1E2DEBF7E
:10021000CDBF00E00CBF12E0A0E0B2E0EEE9F9E1F2
:1002200000E00BBF02C007900D92AE37B107D9F7BF
:1002300024E0AEE7B2E001C01D92AF34B207E1F7AF
:1002400011E0C3E0D1E000E006C021970109802F52
:10025000FE010E94C50CC230D10780E00807A9F753
:10026000EBD70C94CD0CCCCECF92DF92EF92FF92D5
:10027000DC01A03282E0B807D4F5A53BB10514F04B
:10028000A4EBB0E040914D0428E830E0241B310994
:1002900047FD3395220F331F220F331F6901330FA0
:1002A000EE08FF0840914E0428E532E0241B310996
:1002B00047FD3395220F331F220F331F032E000CEF
:1002C000440B550B2C193D094E095F09B7FF02C0BD
:1002D000B0E0A0E00E94820C24EB30E040E050E06F
:1002E0000E945C0CC20ED31EE41EF51ED601E091E6
:1002F0004C04E03380F520914D0488E890E0821BA7
:10030000910927FD9395880F991F880F991FA817AA
:10031000B90784F020914E0488E592E0821B910990
:1003200027FD9395880F991F880F991FA817B90764
:100330000CF4CD010297880F991F4FB7F8942E2F18
:1003400030E0F901EE0FFF1FE20FF31FEC5CFC4FF2
:10035000928381834FBFFF90EF90DF90CF900895FD
:1003600096E0899FD0011124AB53BC4F90967C93AB
:100370006E935F9791E091969C939197E0913204F0
:10038000F091330490913104992339F0309751F072
:10039000811108C08091E1031994309719F05C969F
:1003A0008C91FACF0895CF92DF92EF92FF920F9344
:1003B0001F9396E0899FF0011124EB53FC4F11A28B
:1003C000278D30A12130310549F178F022303105F7
:1003D00009F44FC02330310509F450C01F910F912B
:1003E000FF90EF90DF90CF9008956623B9F361E01E
:1003F00070E0B6DF2FB7F894809193029091940249
:10040000A0919502B09196022FBF80931D04909306
:100410001E04A0931F04B0932004E0CF9FB7F8946C
:10042000C0909302D0909402E0909502F0909602D2
:100430009FBF00911D0410911E0420911F04309154
:100440002004C01AD10AE20AF30A00912F04109185
:10045000300430E020E00C151D052E053F0548F462
:1004600062E070E01F910F91FF90EF90DF90CF90CE
:1004700077CF6111B3CF63E070E0F4CF70E060E05C
:10048000F1CFAF92BF92CF92DF92EF92FF920F9394
:100490001F93CF93DF936C017B018B01040F151F1A
:1004A000EB015E01AE18BF08C017D10759F0699182
:1004B000D601ED91FC910190F081E02DC6011995D6
:1004C000892B79F7C501DF91CF911F910F91FF9093
:1004D000EF90DF90CF90BF90AF900895FC01538DC7
:1004E000448D252F30E0842F90E0821B930B54170E
:1004F00010F0CF96089501970895FC01918D828D9B
:10050000981761F0A28DAE0FBF2FB11D5D968C9133
:10051000928D9F5F9F73928F90E008958FEF9FEF72
:100520000895FC01918D828D981731F0828DE80F2E
:10053000F11D858D90E008958FEF9FEF0895FC01E8
:10054000918D228D892F90E0805C9F4F821B9109B5
:100550008F739927089587E992E0F1DF21E0892BD5
:1005600009F420E0822F0895FC01A48DA80FB92F73
:10057000B11DA35ABF4F2C91848D90E001968F73CB
:100580009927848FA689B7892C93A089B1898C91EA
:10059000837080648C93938D848D981306C0028839
:1005A000F389E02D80818F7D80830895EF92FF9203
:1005B0000F931F93CF93DF93EC0181E0888F9B8D86
:1005C0008C8D98131AC0E889F989808185FF15C040
:1005D0009FB7F894EE89FF896083E889F989808163
:1005E0008370806480839FBF81E090E0DF91CF9132
:1005F0001F910F91FF90EF900895F62E0B8D10E054
:100600000F5F1F4F0F731127E02E8C8D8E110BC0C3
:100610000FB607FCFACFE889F989808185FFF5CF0D
:10062000CE01A2DFF2CFEB8DEC0FFD2FF11DE35ACF
:10063000FF4FF0829FB7F8940B8FEA89FB89808186
:100640008062D0CFCF93DF93EC01888D8823B1F007
:10065000AA89BB89E889F9898C9185FD03C08081CD
:1006600086FD0CC00FB607FCF7CF8C9185FFF2CF4B
:10067000808185FFEDCFCE0177DFEACFDF91CF918B
:10068000089580E090E0892B21F065DF81110E94C0
:10069000000080E090E0892B49F080E090E0892B19
:1006A00029F00E94000081110E94000080E090E08B
:1006B000892B49F080E090E0892B29F00E9400000E
:1006C00081110E94000080E090E0892B49F080E0D9
:1006D00090E0892B29F00E94000081110C94000009
:1006E00008958150823108F05AC0E82FF0E0882741
:1006F000E358FC4F8F4F0C94C50C9D03A1038F034F
:1007000095039903CF03A403AA03AE03B403B8036C
:10071000BC03C203C603CF03CA03D003D403809132
:1007200080008F77809380000895809180008F7D76
:10073000F9CF80918000877FF5CF84B58F7784BD16
:10074000089584B58F7DFBCF8091B0008F77809323
:10075000B00008958091B0008F7DF9CF8091900016
:100760008F77809390000895809190008F7DF9CFCE
:1007700080919000877FF5CF8091A0008F77809344
:10078000A00008958091A0008F7DF9CF8091A000F6
:10079000877FF5CF809120018F7780932001089586
:1007A000809120018F7DF9CF80912001877FF5CF47
:1007B000CF93DF93282F30E0F901E254FE4F84916C
:1007C000F901E858FE4FD491F901EE5CFE4FC49157
:1007D000CC2399F0811185DFEC2FF0E0EE0FFF1FA5
:1007E000E85EFE4FA591B491EC91ED2381E090E09D
:1007F00009F480E0DF91CF91089580E090E0FACF96
:10080000862FD6CF1F93CF93DF93282F30E0F901A7
:10081000E254FE4F8491F901E858FE4FD491F9015A
:10082000EE5CFE4FC491CC23A1F0162F811159DF4D
:10083000EC2FF0E0EE0FFF1FE250FF4FA591B491B7
:100840008FB7F894EC91111108C0D095DE23DC939A
:100850008FBFDF91CF911F910895DE2BF8CF862FA8
:10086000642FD0CFCF93DF9390E0FC01E858FE4F88
:1008700024918E5C9E4FFC0184918823C9F090E006
:10088000880F991FFC01EC51FF4FA591B491FC0119
:10089000E250FF4FC591D49161110DC09FB7F894FC
:1008A0008C91209582238C938881282328839FBF55
:1008B000DF91CF910895623051F49FB7F8943C9145
:1008C000822F809583238C93E8812E2BEFCF8FB7D7
:1008D000F894EC912E2B2C938FBFEACF862F642FA8
:1008E000C1CF3FB7F8948091830290918402A09188
:1008F0008502B091860226B5A89B05C02F3F19F04E
:100900000196A11DB11D3FBFBA2FA92F982F88278F
:10091000BC01CD01620F711D811D911D42E0660F6A
:10092000771F881F991F4A95D1F708958F929F923C
:10093000AF92BF92CF92DF92EF92FF924B015C0198
:10094000D0DF6B017C01CDDF6C197D098E099F0919
:10095000683E734081059105B0F321E0821A910849
:10096000A108B10888EEC80E83E0D81EE11CF11C76
:1009700081149104A104B10431F7FF90EF90DF904E
:10098000CF90BF90AF909F908F900895AF92BF92FD
:10099000CF92DF92EF92FF920F931F93CF93DF934B
:1009A0006B017A01EC01C258DD4F28813CE0389F91
:1009B0008001399F100D1124A090C403B12C27FF92
:1009C0001FC0FB011182108288818F5F888388811C
:1009D0009801280F311D87FD3A95F6012A153B0530
:1009E0001CF488818C30BCF1808191810496803424
:1009F0009C4908F471C0F6018081918104966EC013
:100A000088819801280F311D87FD3A952A153B05ED
:100A1000DCF68881A801480F511D87FD5A95FA011F
:100A2000EE0FFF1FE40FF51FEC5CFC4F808186FF8B
:100A3000CBCF8881F801E80FF11D87FDFA95CF0132
:100A4000EE0FFF1FE80FF91FEC5CFC4F808160E0A8
:100A50008F73D8DEB9CF808191812881A801420FA0
:100A6000511D27FD5A959A01FA01EE0FFF1FE20F63
:100A7000F31FEC5CFC4F21813281820F931FF70141
:100A80009183808388819801280F311D87FD3A95D5
:100A9000F901EE0FFF1FE20FF31FEC5CFC4F8081AA
:100AA00086FF21C08881080F111D87FD1A95F80166
:100AB000EE0FFF1FE00FF11FEC5CFC4F808161E047
:100AC0008F73DF91CF911F910F91FF90EF90DF9087
:100AD000CF90BF90AF9096CE80E49CE9F7019183D0
:100AE00080838FEF8883DF91CF911F910F91FF90CB
:100AF000EF90DF90CF90BF90AF900895089590E071
:100B000080E00895CF93DF93C0918702D09188024F
:100B1000D7FD0DC0CE01A8DB6FE070E080E090E073
:100B200005DF2197D0938802C0938702EDCFDF9134
:100B3000CF910895FC0101900020E9F73197AF01B2
:100B4000481B590BBC0184E394E09BCCCF93DF930B
:100B5000F1DFEC018EE392E0EDDF8C0F9D1FDF9162
:100B6000CF910895CF93DF93EC0160E08E814ADE50
:100B700061E08E8147DE60E08E8144DE8BE891E0AB
:100B80000197F1F7DF91CF910895CF92DF92EF9225
:100B9000FF920F931F93CF93DF936C017C0187E04B
:100BA000E80EF11CD0E0C0E0062F10E0B8010C2EDA
:100BB00002C0759567950A94E2F76170F70181911B
:100BC0007F0120DE2196C430D10581F7C601DF9177
:100BD000CF911F910F91FF90EF90DF90CF90C2CFF8
:100BE000CF92DF92EF92FF920F931F93CF93DF93F9
:100BF000EC01F62E642F8C8105DE8D818F3F11F084
:100C000060E000DE0F2D10E08F8584FF23C06E01B1
:100C100087E0C80ED11CF12CE12CB8010E2C02C0CB
:100C2000759567950A94E2F76170F60181916F01FD
:100C3000E9DDFFEFEF1AFF0A88E0E816F10469F733
:100C4000CE01DF91CF911F910F91FF90EF90DF9038
:100C5000CF9088CFB80184E0759567958A95E1F7C4
:100C6000CE0193DF6F2DCE01DF91CF911F910F91B8
:100C7000FF90EF90DF90CF9088CF40E0682F84E323
:100C800094E0AECF81E0F9DF8BE39FE10197F1F7CC
:100C90000895CF93DF93823029F4909143049860B4
:100CA00090934304809347041092480480E4809317
:100CB000490480E180934A0480E580934B0461E01D
:100CC00080913804CFDD809139048F3F11F061E0CD
:100CD000C9DD61E080913A04C5DDC4E3D4E09E0142
:100CE000245334408091430484FD0AC084E090E0A2
:100CF0002196281739073CF461E08E81B3DDEFCFF0
:100D000088E090E0F5CF8BE39DE00197F1F760E09C
:100D10008091380477DD60E080913A0473DD809142
:100D200039048F3F11F060E06DDD8091430484FD54
:100D30002CC063E084E394E028DFCBE4D6E4CE016A
:100D40000197F1F763E084E394E01FDF2197F1F767
:100D500063E084E394E019DF83E592E00197F1F723
:100D600062E084E394E011DF80914304806285DFD8
:100D700084E0809344048CE080DF84DF82E0809311
:100D8000450486E0DF91CF9178CF806276DF8BE4F7
:100D900096E40197F1F78091430480626EDF83E56A
:100DA00092E00197F1F780914304806266DFDCCF27
:100DB00090914704691710F06FEF690FE62FF0E08C
:100DC000EC5CFB4F9489890F806857CF41E008DFC6
:100DD00081E090E008951F920F920FB60F921124B8
:100DE0000BB60F922F933F934F935F936F937F9325
:100DF0008F939F93AF93BF93EF93FF9387E992E015
:100E0000B3DBFF91EF91BF91AF919F918F917F9154
:100E10006F915F914F913F912F910F900BBE0F906B
:100E20000FBE0F901F9018951F920F920FB60F9242
:100E300011240BB60F922F938F939F93EF93FF93F1
:100E4000E091A702F091A8028081E091AD02F091BB
:100E5000AE0282FD1DC090818091B0028F5F8F73C2
:100E60002091B102821741F0E091B002F0E0E95622
:100E7000FD4F958F8093B002FF91EF919F918F91DD
:100E80002F910F900BBE0F900FBE0F901F901895D3
:100E90008081F2CF1F920F920FB60F9211242F93E1
:100EA0003F938F939F93AF93BF93809193029091C1
:100EB0009402A0919502B09196023091820223E0B3
:100EC000230F2D3758F50196A11DB11D20938202E5
:100ED0008093930290939402A0939502B09396020C
:100EE0008091830290918402A0918502B091860244
:100EF0000196A11DB11D8093830290938402A0935B
:100F00008502B0938602BF91AF919F918F913F91DF
:100F10002F910F900FBE0F901F90189526E8230F6A
:100F20000296A11DB11DD2CF1F920F920FB60F9244
:100F300011240BB60F922F933F934F935F936F93B0
:100F40007F938F939F93AF93BF93EF93FF9348E269
:100F500051E064E271E090E080E018DDFF91EF91F4
:100F6000BF91AF919F918F917F916F915F914F91C1
:100F70003F912F910F900BBE0F900FBE0F901F90BF
:100F800018951F920F920FB60F9211240BB60F9265
:100F90002F933F934F935F936F937F938F939F9381
:100FA000AF93BF93EF93FF9348EA50E064EA70E099
:100FB00083E090E0EBDCFF91EF91BF91AF919F91C7
:100FC0008F917F916F915F914F913F912F910F90F2
:100FD0000BBE0F900FBE0F901F9018951F920F928F
:100FE0000FB60F9211240BB60F922F933F934F938E
:100FF0005F936F937F938F939F93AF93BF93EF9381
:10100000FF9348E950E064E970E082E090E0BEDCE4
:10101000FF91EF91BF91AF919F918F917F916F91D0
:101020005F914F913F912F910F900BBE0F900FBE8C
:101030000F901F9018951F920F920FB60F921124C8
:101040000BB60F922F933F934F935F936F937F93C2
:101050008F939F93AF93BF93EF93FF9348E850E034
:1010600064E870E081E090E091DCFF91EF91BF9146
:10107000AF919F918F917F916F915F914F913F9130
:101080002F910F900BBE0F900FBE0F901F901895D1
:1010900010929A021092990288EE93E0A0E0B0E0DC
:1010A00080939B0290939C02A0939D02B0939E021A
:1010B0008AE192E0909398028093970285EC90E009
:1010C0009093A4028093A30284EC90E09093A602F4
:1010D0008093A50280EC90E09093A8028093A702F1
:1010E00081EC90E09093AA028093A90282EC90E0B8
:1010F0009093AC028093AB0286EC90E09093AE02AA
:101100008093AD021092B0021092B1021092B2021E
:101110001092B3028091C403803308F089C091E03B
:10112000980F9093C40380934C0490E0FC01EE0F61
:10113000FF1FE80FF91FEC5CFC4F88EB9BE09283EC
:101140008183109237041092360486E392E09093E4
:1011500035048093340487E0809338048FEF8093C4
:10116000390486E080933A0485E080933B0484E070
:1011700080933C0483E080933D0482E080933E04AE
:1011800010923F04109240041092410410924204C5
:101190001092430481E07DDD1092C7031092CB03CF
:1011A0001092CA031092CC038CE292E09093C60393
:1011B0008093C503E1EEF3E010821482138215825E
:1011C000369684E0ED31F807B9F783E092E090932A
:1011D00028048093270480E092E090932A0480936F
:1011E000290484E080932B0483E080932C0487E01F
:1011F00092E090932604809325048AE090E09093F7
:101200002E0480932D0484EF91E09093300480931A
:101210002F04109233041092320410922104109281
:101220002204109223041092240410923104089591
:101230008FEF80934C0485CF789484B5826084BD11
:1012400084B5816084BD85B5826085BD85B58160CA
:1012500085BD80916E00816080936E001092810048
:101260008091810082608093810080918100816003
:1012700080938100809180008160809380008091C4
:10128000B10084608093B1008091B0008160809350
:10129000B0008091910082608093910080919100D4
:1012A0008160809391008091900081608093900094
:1012B0008091A10082608093A1008091A100816053
:1012C0008093A1008091A00081608093A000809114
:1012D00021018260809321018091210181608093AE
:1012E00021018091200181608093200180917A000A
:1012F000846080937A0080917A00826080937A0083
:1013000080917A00816080937A0080917A00806871
:1013100080937A001092C10080914C04803308F0D1
:1013200050C061E08AE09EDA80914C04282F30E0C2
:10133000F901EE0FFF1FE20FF31FEC5CFC4F9081F1
:10134000907C9A60908310924D0410924E042CE091
:10135000622F0FD3829FB001112430E020E0AB0157
:10136000420F531FFA01EE0FFF1FE40FF51FEC5C55
:10137000FC4F908196FD17C02F5F3F4F2C303105F9
:1013800071F7813009F0C9C01092800082E080932B
:1013900081001092850010928400B19A80916F00B4
:1013A000826080936F00E0914C048E2F90E0FC01EE
:1013B000EE0FFF1FE80FF91FEC5CFC4F808180648B
:1013C000808390E080E00E94340182E062DC61E092
:1013D0008DE048DA61E08BE045DA60E08CE042DAEB
:1013E000E091A702F091A80282E08083E091A3023D
:1013F000F091A4021082E091A502F091A6028FEC78
:1014000080831092AF02E091AB02F091AC0286E0D3
:101410008083E091A902F091AA028081806180839B
:10142000E091A902F091AA02808188608083E09116
:10143000A902F091AA02808180688083E091A902CC
:10144000F091AA0280818F7D808362E370E080E06A
:1014500090E06CDA812C912C5401839422242A94FC
:10146000322CCC24C394D12C8CE0A2D9019709F062
:10147000FAC161E08DE0C6D980919002909191020D
:10148000892B09F0F5C160E080E092DC81E492E014
:1014900051DB61E085E08CDC10928F0210928E02AD
:1014A00080918E0290918F0203970CF06CC151E0F5
:1014B000509331048FB7F894409193025091940265
:1014C00060919502709196028FBF80912104909156
:1014D0002204A0912304B0912404481B590B6A0BE9
:1014E0007B0B80912D0490912E04B0E0A0E0841736
:1014F0009507A607B70708F043C1C0E080912B0409
:10150000C817B8F5E0912704F0912804EC0FF11DFD
:1015100062E08081A7D9CF5FF1CF823061F4109271
:10152000900080939100109295001092940088BBD7
:101530008093710038CF833069F41092A00082E06C
:101540008093A1001092A5001092A40089BB809303
:10155000720029CF811127CF1092200182E0809361
:10156000210110922501109224018ABB80937300FF
:101570001ACF512C80912C04581608F05AC0052D12
:1015800010E0E0912904F0912A04E00FF11F61E0DE
:10159000808168D9E0912904F0912A04E00FF11FBD
:1015A00060E080812FD9D501C401052C04C0880FCB
:1015B000991FAA1FBB1F0A94D2F73C017C01E0943B
:1015C000F094412C80912B044816F0F4C42DD0E007
:1015D000E0912704F0912804EC0FFD1F8081E8D8EA
:1015E0002496CC0FDD1FCB53DC4F892B41F488812F
:1015F000998186299729998388834394E3CF8881A9
:1016000099818E219F21F7CFE0912904F0912A043E
:10161000E00FF11F61E08081F5D88091290490915D
:101620002A04080F191F60E0F80180811BD9539428
:10163000A1CFC5ECD3E0FE01878D90A1892B21F4C9
:10164000148E368E258E11A2369654E0E130F507C1
:1016500099F710E080912B04181708F053C000E0B0
:10166000E12EF12CEE0CFF1CC70183539C4F7C0133
:1016700020912C04021708F043C0F70160817181AA
:10168000002E02C0769567950A94E2F7129F9001AA
:101690001124200F311DE5ECF3E080E0458D568DDF
:1016A0002417350709F406C18F5F36968A30B1F7E3
:1016B00060FF24C0E5ECF3E090E080E0448D411150
:1016C00018C0E0912504F0912604E20FF31F408139
:1016D00056E0589FF001599FF00D1124EB53FC4F39
:1016E000448F368F258F10A2178E61E00E94D301A0
:1016F00005C0019636968A30910501F70F5FB8CF85
:101700001F5FA8CF80E099A19111892F269694E0C0
:10171000C130D907C1F79FB7F89440919302509117
:10172000940260919502709196029FBF40932104AC
:10173000509322046093230470932404882301F1BE
:101740008091E6038823E1F08091E4039091E50322
:101750000197B1F42091E103222309F4A1CE8091F5
:101760008E0290918F02FC01E557FD4F2083019678
:1017700090938F0280938E0280E592E0DBD990CE29
:10178000109231048DCE10928F0210928E028091B1
:101790008E0290918F022091890230918A02232B30
:1017A00051F5833091053CF5FC01ED5EFD4F308134
:1017B000FC01E557FD4F20813217B9F0D0928A0223
:1017C000C092890268EC70E080E090E0AFD861E000
:1017D00080E0EEDA83E592E0B9D994D964EF71E064
:1017E00080E090E0A3D84EDAD2CF019690938F029A
:1017F00080938E02CCCF039709F03ECED092910217
:10180000C092900268EC70E080E090E08FD861E0D8
:1018100080E0CEDA84E692E099D961E08DE00E9422
:10182000020464EF71E080E090E080D8C09187020C
:10183000D0918802C53BD10574F4CE010E943401D9
:101840006FE070E080E090E071D82196D09388023C
:10185000C0938702EBCF60E080E0AADA13DA83E777
:1018600092E074D909CE60E08DE00E9402044AD96A
:1018700087E992E00E949F021816190684F487E90E
:1018800092E00E947D0280939202813459F461E0DB
:101890008DE00E94020461E08BE00E9402040E943D
:1018A0004103E2CD8234D9F760E08DE00E9402046A
:1018B00060E0F2CF61701ACF052E97FB16F400940A
:1018C0000FD057FD05D024D007FC02D046F408C045
:1018D00050954095309521953F4F4F4F5F4F08955C
:1018E00090958095709561957F4F8F4F9F4F08958C
:1018F00031D0A59F900DB49F900DA49F800D911D98
:1019000011240895B7FFF4CFF3DF821B930B0895E2
:10191000A1E21A2EAA1BBB1BFD010DC0AA1FBB1FF3
:10192000EE1FFF1FA217B307E407F50720F0A21B65
:10193000B30BE40BF50B661F771F881F991F1A94D2
:1019400069F760957095809590959B01AC01BD01FC
:10195000CF010895A29FB001B39FC001A39F700D56
:10196000811D1124911DB29F700D811D1124911DA7
:101970000895991B79E004C0991F961708F0961BEB
:10198000881F7A95C9F780950895EE0FFF1F881F6D
:0E1990008BBF0790F691E02D1994F894FFCFCD
:10199E003E3F4036373839313233343536373839C1
:1019AE002A302332343600000000D60241026E0285
:1019BE0022039F027D029102000000006E042F049C
:1019CE00000400000000E60641027F057E050D0AB8
:1019DE0000494E475245534520434C4156453A0027
:1019EE002A2000636C61766520696E636F72726582
:1019FE0063746100636C61766520636F72726563F8
:0E1A0E007461004269656E76656E69646F00F2
:00000001FF
