:1000000002C1000030C100002EC100002CC1000060
:100010002AC1000028C1000026C1000024C1000040
:1000200022C1000020C100001EC100001CC1000050
:100030001AC1000018C1000016C1000014C1000060
:1000400012C10000F8C700000EC100000CC1000082
:100050000AC1000008C1000006C100001BC7000063
:1000600002C10000E1C60000B6C60000FCC00000EE
:10007000FAC00000F8C00000F6C00000F4C00000A4
:10008000ADC70000F0C00000EEC00000ECC00000F2
:10009000EAC00000E8C00000E6C00000E4C00000C4
:1000A000E2C00000E0C000006CC70000DCC000003F
:1000B000DAC00000D8C00000D6C0000035C700007C
:1000C000D2C00000D0C00000CEC00000CCC00000F4
:1000D000CAC00000C8C00000C6C00000C4C0000004
:1000E000C2C0000000002100240027002A002D00CB
:1000F0003000330001010000040107010A01000083
:100100002200250028002B002E00310034000201BF
:100110000000050108010B0100002000230026005B
:1001200029002C002F00320000010000030106010D
:10013000090105050505070508080808020202026D
:100140000A0A080804040404010101010101010173
:100150000303030303030303040707070C0C0C0C3E
:100160000C0C0C0C02020202060606060606060627
:100170000B0B0B0B0B0B0B0B0102102020080810B4
:100180002040102040800201020108040201010207
:1001900004081020408080402010080402018004E0
:1001A000020180402010080402010804020101023B
:1001B0000408102040800102040810204080000044
:1001C0000A0B02090C0D0E080703040100000000D1
:1001D000000000000000000000000000000000001F
:1001E00000000000000000000000121110000000DC
:1001F00000000000000000000000000000000000FF
:1002000000000000480811241FBECFEFD1E2DEBF7E
:10021000CDBF00E00CBF12E0A0E0B2E0E0E8F9E101
:1002200000E00BBF02C007900D92AE37B107D9F7BF
:1002300024E0AEE7B2E001C01D92AE34B207E1F7B0
:1002400011E0C3E0D1E000E006C021970109802F52
:10025000FE010E94B60CC230D10780E00807A9F762
:10026000EBD70C94BE0CCCCECF92DF92EF92FF92E4
:10027000DC01A03282E0B807D4F5A53BB10514F04B
:10028000A4EBB0E040914C0428E830E0241B310995
:1002900047FD3395220F331F220F331F6901330FA0
:1002A000EE08FF0840914D0428E532E0241B310997
:1002B00047FD3395220F331F220F331F032E000CEF
:1002C000440B550B2C193D094E095F09B7FF02C0BD
:1002D000B0E0A0E00E94730C24EB30E040E050E07E
:1002E0000E944D0CC20ED31EE41EF51ED601E091F5
:1002F0004B04E03380F520914C0488E890E0821BA9
:10030000910927FD9395880F991F880F991FA817AA
:10031000B90784F020914D0488E592E0821B910991
:1003200027FD9395880F991F880F991FA817B90764
:100330000CF4CD010297880F991F4FB7F8942E2F18
:1003400030E0F901EE0FFF1FE20FF31FED5CFC4FF1
:10035000928381834FBFFF90EF90DF90CF900895FD
:1003600096E0899FD0011124AC53BC4F90967C93AA
:100370006E935F9791E091969C939197E0913104F1
:10038000F091320490913004992339F0309751F074
:10039000811108C08091E0031994309719F05C96A0
:1003A0008C91FACF0895CF92DF92EF92FF920F9344
:1003B0001F9396E0899FF0011124EC53FC4F11A28A
:1003C000278D30A12130310549F178F022303105F7
:1003D00009F44FC02330310509F450C01F910F912B
:1003E000FF90EF90DF90CF9008956623B9F361E01E
:1003F00070E0B6DF2FB7F89480919202909193024B
:10040000A0919402B09195022FBF80931C04909309
:100410001D04A0931E04B0931F04E0CF9FB7F8946F
:10042000C0909202D0909302E0909402F0909502D6
:100430009FBF00911C0410911D0420911E04309157
:100440001F04C01AD10AE20AF30A00912E04109187
:100450002F0430E020E00C151D052E053F0548F463
:1004600062E070E01F910F91FF90EF90DF90CF90CE
:1004700077CF6111B3CF63E070E0F4CF70E060E05C
:10048000F1CFAF92BF92CF92DF92EF92FF920F9394
:100490001F93CF93DF936C017B018B01040F151F1A
:1004A000EB015E01AE18BF08C017D10759F0699182
:1004B000D601ED91FC910190F081E02DC6011995D6
:1004C000892B79F7C501DF91CF911F910F91FF9093
:1004D000EF90DF90CF90BF90AF900895FC01538DC7
:1004E000448D252F30E0842F90E0821B930B54170E
:1004F00010F0CF96089501970895FC01918D828D9B
:10050000981761F0A28DAE0FBF2FB11D5D968C9133
:10051000928D9F5F9F73928F90E008958FEF9FEF72
:100520000895FC01918D828D981731F0828DE80F2E
:10053000F11D858D90E008958FEF9FEF0895FC01E8
:10054000918D228D892F90E0805C9F4F821B9109B5
:100550008F739927089586E992E0F1DF21E0892BD6
:1005600009F420E0822F0895FC01A48DA80FB92F73
:10057000B11DA35ABF4F2C91848D90E001968F73CB
:100580009927848FA689B7892C93A089B1898C91EA
:10059000837080648C93938D848D981306C0028839
:1005A000F389E02D80818F7D80830895EF92FF9203
:1005B0000F931F93CF93DF93EC0181E0888F9B8D86
:1005C0008C8D98131AC0E889F989808185FF15C040
:1005D0009FB7F894EE89FF896083E889F989808163
:1005E0008370806480839FBF81E090E0DF91CF9132
:1005F0001F910F91FF90EF900895F62E0B8D10E054
:100600000F5F1F4F0F731127E02E8C8D8E110BC0C3
:100610000FB607FCFACFE889F989808185FFF5CF0D
:10062000CE01A2DFF2CFEB8DEC0FFD2FF11DE35ACF
:10063000FF4FF0829FB7F8940B8FEA89FB89808186
:100640008062D0CFCF93DF93EC01888D8823B1F007
:10065000AA89BB89E889F9898C9185FD03C08081CD
:1006600086FD0CC00FB607FCF7CF8C9185FFF2CF4B
:10067000808185FFEDCFCE0177DFEACFDF91CF918B
:10068000089580E090E0892B21F065DF81110E94C0
:10069000000080E090E0892B49F080E090E0892B19
:1006A00029F00E94000081110E94000080E090E08B
:1006B000892B49F080E090E0892B29F00E9400000E
:1006C00081110E94000080E090E0892B49F080E0D9
:1006D00090E0892B29F00E94000081110C94000009
:1006E00008958150823108F05AC0E82FF0E0882741
:1006F000E358FC4F8F4F0C94B60C9D03A1038F035E
:1007000095039903CF03A403AA03AE03B403B8036C
:10071000BC03C203C603CF03CA03D003D403809132
:1007200080008F77809380000895809180008F7D76
:10073000F9CF80918000877FF5CF84B58F7784BD16
:10074000089584B58F7DFBCF8091B0008F77809323
:10075000B00008958091B0008F7DF9CF8091900016
:100760008F77809390000895809190008F7DF9CFCE
:1007700080919000877FF5CF8091A0008F77809344
:10078000A00008958091A0008F7DF9CF8091A000F6
:10079000877FF5CF809120018F7780932001089586
:1007A000809120018F7DF9CF80912001877FF5CF47
:1007B000CF93DF93282F30E0F901E254FE4F84916C
:1007C000F901E858FE4FD491F901EE5CFE4FC49157
:1007D000CC2399F0811185DFEC2FF0E0EE0FFF1FA5
:1007E000E85EFE4FA591B491EC91ED2381E090E09D
:1007F00009F480E0DF91CF91089580E090E0FACF96
:10080000862FD6CF1F93CF93DF93282F30E0F901A7
:10081000E254FE4F8491F901E858FE4FD491F9015A
:10082000EE5CFE4FC491CC23A1F0162F811159DF4D
:10083000EC2FF0E0EE0FFF1FE250FF4FA591B491B7
:100840008FB7F894EC91111108C0D095DE23DC939A
:100850008FBFDF91CF911F910895DE2BF8CF862FA8
:10086000642FD0CFCF93DF9390E0FC01E858FE4F88
:1008700024918E5C9E4FFC0184918823C9F090E006
:10088000880F991FFC01EC51FF4FA591B491FC0119
:10089000E250FF4FC591D49161110DC09FB7F894FC
:1008A0008C91209582238C938881282328839FBF55
:1008B000DF91CF910895623051F49FB7F8943C9145
:1008C000822F809583238C93E8812E2BEFCF8FB7D7
:1008D000F894EC912E2B2C938FBFEACF862F642FA8
:1008E000C1CF3FB7F8948091830290918402A09188
:1008F0008502B091860226B5A89B05C02F3F19F04E
:100900000196A11DB11D3FBFBA2FA92F982F88278F
:10091000BC01CD01620F711D811D911D42E0660F6A
:10092000771F881F991F4A95D1F708958F929F923C
:10093000AF92BF92CF92DF92EF92FF924B015C0198
:10094000D0DF6B017C01CDDF6C197D098E099F0919
:10095000683E734081059105B0F321E0821A910849
:10096000A108B10888EEC80E83E0D81EE11CF11C76
:1009700081149104A104B10431F7FF90EF90DF904E
:10098000CF90BF90AF909F908F900895AF92BF92FD
:10099000CF92DF92EF92FF920F931F93CF93DF934B
:1009A0006B017A01EC01C258DD4F28813CE0389F91
:1009B0008001399F100D1124A090C303B12C27FF93
:1009C0001FC0FB011182108288818F5F888388811C
:1009D0009801280F311D87FD3A95F6012A153B0530
:1009E0001CF488818C30BCF1808191810496803424
:1009F0009C4908F471C0F6018081918104966EC013
:100A000088819801280F311D87FD3A952A153B05ED
:100A1000DCF68881A801480F511D87FD5A95FA011F
:100A2000EE0FFF1FE40FF51FED5CFC4F808186FF8A
:100A3000CBCF8881F801E80FF11D87FDFA95CF0132
:100A4000EE0FFF1FE80FF91FED5CFC4F808160E0A7
:100A50008F73D8DEB9CF808191812881A801420FA0
:100A6000511D27FD5A959A01FA01EE0FFF1FE20F63
:100A7000F31FED5CFC4F21813281820F931FF70140
:100A80009183808388819801280F311D87FD3A95D5
:100A9000F901EE0FFF1FE20FF31FED5CFC4F8081A9
:100AA00086FF21C08881080F111D87FD1A95F80166
:100AB000EE0FFF1FE00FF11FED5CFC4F808161E046
:100AC0008F73DF91CF911F910F91FF90EF90DF9087
:100AD000CF90BF90AF9096CE80E49CE9F7019183D0
:100AE00080838FEF8883DF91CF911F910F91FF90CB
:100AF000EF90DF90CF90BF90AF900895089590E071
:100B000080E00895CF93DF93C0918702D09188024F
:100B1000D7FD0DC0CE01A8DB6FE070E080E090E073
:100B200005DF2197D0938802C0938702EDCFDF9134
:100B3000CF910895FC0101900020E9F73197AF01B2
:100B4000481B590BBC0183E394E09BCCCF93DF930C
:100B5000F1DFEC018EE392E0EDDF8C0F9D1FDF9162
:100B6000CF910895CF93DF93EC0160E08E814ADE50
:100B700061E08E8147DE60E08E8144DE8BE891E0AB
:100B80000197F1F7DF91CF910895CF92DF92EF9225
:100B9000FF920F931F93CF93DF936C017C0187E04B
:100BA000E80EF11CD0E0C0E0062F10E0B8010C2EDA
:100BB00002C0759567950A94E2F76170F70181911B
:100BC0007F0120DE2196C430D10581F7C601DF9177
:100BD000CF911F910F91FF90EF90DF90CF90C2CFF8
:100BE000CF92DF92EF92FF920F931F93CF93DF93F9
:100BF000EC01F62E642F8C8105DE8D818F3F11F084
:100C000060E000DE0F2D10E08F8584FF23C06E01B1
:100C100087E0C80ED11CF12CE12CB8010E2C02C0CB
:100C2000759567950A94E2F76170F60181916F01FD
:100C3000E9DDFFEFEF1AFF0A88E0E816F10469F733
:100C4000CE01DF91CF911F910F91FF90EF90DF9038
:100C5000CF9088CFB80184E0759567958A95E1F7C4
:100C6000CE0193DF6F2DCE01DF91CF911F910F91B8
:100C7000FF90EF90DF90CF9088CF40E0682F83E324
:100C800094E0AECF81E0F9DF8BE39FE10197F1F7CC
:100C90000895CF93DF93823029F4909142049860B5
:100CA00090934204809346041092470480E480931A
:100CB000480480E18093490480E580934A0461E020
:100CC00080913704CFDD809138048F3F11F061E0CF
:100CD000C9DD61E080913904C5DDC3E3D4E09E0144
:100CE000235334408091420484FD0AC084E090E0A4
:100CF0002196281739073CF461E08E81B3DDEFCFF0
:100D000088E090E0F5CF8BE39DE00197F1F760E09C
:100D10008091370477DD60E08091390473DD809144
:100D200038048F3F11F060E06DDD8091420484FD56
:100D30002CC063E083E394E028DFCBE4D6E4CE016B
:100D40000197F1F763E083E394E01FDF2197F1F768
:100D500063E083E394E019DF83E592E00197F1F724
:100D600062E083E394E011DF80914204806285DFDA
:100D700084E0809343048CE080DF84DF82E0809312
:100D8000440486E0DF91CF9178CF806276DF8BE4F8
:100D900096E40197F1F78091420480626EDF83E56B
:100DA00092E00197F1F780914204806266DFDCCF28
:100DB00090914604691710F06FEF690FE62FF0E08D
:100DC000ED5CFB4F9489890F806857CF41E008DFC5
:100DD00081E090E008951F920F920FB60F921124B8
:100DE0000BB60F922F933F934F935F936F937F9325
:100DF0008F939F93AF93BF93EF93FF9386E992E016
:100E0000B3DBFF91EF91BF91AF919F918F917F9154
:100E10006F915F914F913F912F910F900BBE0F906B
:100E20000FBE0F901F9018951F920F920FB60F9242
:100E300011240BB60F922F938F939F93EF93FF93F1
:100E4000E091A602F091A7028081E091AC02F091BE
:100E5000AD0282FD1DC090818091AF028F5F8F73C4
:100E60002091B002821741F0E091AF02F0E0EA5623
:100E7000FD4F958F8093AF02FF91EF919F918F91DE
:100E80002F910F900BBE0F900FBE0F901F901895D3
:100E90008081F2CF1F920F920FB60F9211242F93E1
:100EA0003F938F939F93AF93BF93809192029091C2
:100EB0009302A0919402B09195023091820223E0B6
:100EC000230F2D3758F50196A11DB11D20938202E5
:100ED0008093920290939302A0939402B093950210
:100EE0008091830290918402A0918502B091860244
:100EF0000196A11DB11D8093830290938402A0935B
:100F00008502B0938602BF91AF919F918F913F91DF
:100F10002F910F900FBE0F901F90189526E8230F6A
:100F20000296A11DB11DD2CF1F920F920FB60F9244
:100F300011240BB60F922F933F934F935F936F93B0
:100F40007F938F939F93AF93BF93EF93FF9348E269
:100F500051E064E271E090E080E018DDFF91EF91F4
:100F6000BF91AF919F918F917F916F915F914F91C1
:100F70003F912F910F900BBE0F900FBE0F901F90BF
:100F800018951F920F920FB60F9211240BB60F9265
:100F90002F933F934F935F936F937F938F939F9381
:100FA000AF93BF93EF93FF9348EA50E064EA70E099
:100FB00083E090E0EBDCFF91EF91BF91AF919F91C7
:100FC0008F917F916F915F914F913F912F910F90F2
:100FD0000BBE0F900FBE0F901F9018951F920F928F
:100FE0000FB60F9211240BB60F922F933F934F938E
:100FF0005F936F937F938F939F93AF93BF93EF9381
:10100000FF9348E950E064E970E082E090E0BEDCE4
:10101000FF91EF91BF91AF919F918F917F916F91D0
:101020005F914F913F912F910F900BBE0F900FBE8C
:101030000F901F9018951F920F920FB60F921124C8
:101040000BB60F922F933F934F935F936F937F93C2
:101050008F939F93AF93BF93EF93FF9348E850E034
:1010600064E870E081E090E091DCFF91EF91BF9146
:10107000AF919F918F917F916F915F914F913F9130
:101080002F910F900BBE0F900FBE0F901F901895D1
:10109000109299021092980288EE93E0A0E0B0E0DE
:1010A00080939A0290939B02A0939C02B0939D021E
:1010B0008AE192E0909397028093960285EC90E00B
:1010C0009093A3028093A20284EC90E09093A502F7
:1010D0008093A40280EC90E09093A7028093A602F4
:1010E00081EC90E09093A9028093A80282EC90E0BA
:1010F0009093AB028093AA0286EC90E09093AD02AD
:101100008093AC021092AF021092B0021092B10222
:101110001092B2028091C303803308F089C091E03D
:10112000980F9093C30380934B0490E0FC01EE0F63
:10113000FF1FE80FF91FED5CFC4F88EB9BE09283EB
:101140008183109236041092350486E392E09093E6
:1011500034048093330487E0809337048FEF8093C7
:10116000380486E08093390485E080933A0484E073
:1011700080933B0483E080933C0482E080933D04B1
:1011800010923E0410923F041092400410924104C9
:101190001092420481E07DDD1092C6031092CA03D2
:1011A0001092C9031092CB038CE292E09093C50396
:1011B0008093C403E0EEF3E0108214821382158260
:1011C000369684E0EC31F807B9F783E092E090932B
:1011D00027048093260480E092E090932904809372
:1011E000280484E080932A0483E080932B0487E022
:1011F00092E090932504809324048AE090E09093F9
:101200002D0480932C0484EF91E090932F0480931D
:101210002E04109232041092310410922004109285
:101220002104109222041092230410923004089595
:101230008FEF80934B0485CF789484B5826084BD12
:1012400084B5816084BD85B5826085BD85B58160CA
:1012500085BD80916E00816080936E001092810048
:101260008091810082608093810080918100816003
:1012700080938100809180008160809380008091C4
:10128000B10084608093B1008091B0008160809350
:10129000B0008091910082608093910080919100D4
:1012A0008160809391008091900081608093900094
:1012B0008091A10082608093A1008091A100816053
:1012C0008093A1008091A00081608093A000809114
:1012D00021018260809321018091210181608093AE
:1012E00021018091200181608093200180917A000A
:1012F000846080937A0080917A00826080937A0083
:1013000080917A00816080937A0080917A00806871
:1013100080937A001092C10080914B04803308F0D2
:1013200050C061E08AE09EDA80914B04282F30E0C3
:10133000F901EE0FFF1FE20FF31FED5CFC4F9081F0
:10134000907C9A60908310924C0410924D042CE093
:10135000622F00D3829FB001112430E020E0AB0166
:10136000420F531FFA01EE0FFF1FE40FF51FED5C54
:10137000FC4F908196FD17C02F5F3F4F2C303105F9
:1013800071F7813009F0D9C01092800082E080931B
:1013900081001092850010928400B19A80916F00B4
:1013A000826080936F00E0914B048E2F90E0FC01EF
:1013B000EE0FFF1FE80FF91FED5CFC4F808180648A
:1013C000808390E080E00E94340182E062DC61E092
:1013D0008DE048DA61E08BE045DA60E08CE042DAEB
:1013E000E091A602F091A70282E08083E091A20240
:1013F000F091A3021082E091A402F091A5028FEC7B
:1014000080831092AE02E091AA02F091AB0286E0D6
:101410008083E091A802F091A9028081806180839D
:10142000E091A802F091A902808188608083E09118
:10143000A802F091A902808180688083E091A802CF
:10144000F091A90280818F7D808362E370E080E06B
:1014500090E06CDA812C912C5401839422242A94FC
:10146000322CCC24C394D12C61E08BE0CBD968EE34
:1014700073E080E090E05ADA60E08BE0C3D968EE78
:1014800073E080E090E052DA8CE092D9019709F0A5
:10149000FAC161E08DE0B6D98091900290919102FD
:1014A000892B09F0F5C160E080E082DC81E492E004
:1014B00041DB61E085E07CDC10928F0210928E02AD
:1014C00080918E0290918F0203970CF06CC151E0D5
:1014D000509330048FB7F894409192025091930248
:1014E00060919402709195028FBF80912004909139
:1014F0002104A0912204B0912304481B590B6A0BCC
:101500007B0B80912C0490912D04B0E0A0E0841717
:101510009507A607B70708F043C1C0E080912A04E9
:10152000C817B8F5E0912604F0912704EC0FF11DDF
:1015300062E0808197D9CF5FF1CF823061F4109261
:10154000900080939100109295001092940088BBB7
:101550008093710028CF833069F41092A00082E05C
:101560008093A1001092A5001092A40089BB8093E3
:10157000720019CF811117CF1092200182E0809361
:10158000210110922501109224018ABB80937300DF
:101590000ACF512C80912B04581608F05AC0052D03
:1015A00010E0E0912804F0912904E00FF11F61E0C0
:1015B000808158D9E0912804F0912904E00FF11FAF
:1015C00060E080811FD9D501C401052C04C0880FBB
:1015D000991FAA1FBB1F0A94D2F73C017C01E0941B
:1015E000F094412C80912A044816F0F4C42DD0E0E8
:1015F000E0912604F0912704EC0FFD1F8081D8D8DC
:101600002496CC0FDD1FCC53DC4F892B41F488810D
:10161000998186299729998388834394E3CF888188
:1016200099818E219F21F7CFE0912804F091290420
:10163000E00FF11F61E08081E5D88091280490914E
:101640002904080F191F60E0F80180810BD9539419
:10165000A1CFC4ECD3E0FE01878D90A1892B21F4AA
:10166000148E368E258E11A2369654E0E030F507A2
:1016700099F710E080912A04181708F053C000E091
:10168000E12EF12CEE0CFF1CC70184539C4F7C0112
:1016900020912B04021708F043C0F701608171818B
:1016A000002E02C0769567950A94E2F7129F90018A
:1016B0001124200F311DE4ECF3E080E0458D568DC0
:1016C0002417350709F4E7C08F5F36968A30B1F7E3
:1016D00060FF24C0E4ECF3E090E080E0448D411131
:1016E00018C0E0912404F0912504E20FF31F40811B
:1016F00056E0589FF001599FF00D1124EC53FC4F18
:10170000448F368F258F10A2178E61E00E94D3017F
:1017100005C0019636968A30910501F70F5FB8CF64
:101720001F5FA8CF80E099A19111892F269694E0A0
:10173000C030D907C1F79FB7F894409192025091F9
:10174000930260919402709195029FBF4093200490
:10175000509321046093220470932304882301F1A1
:101760008091E5038823E1F08091E3039091E40305
:101770000197B1F42091E003222309F4A1CE8091D6
:101780008E0290918F02FC01E557FD4F2083019658
:1017900090938F0280938E0280E592E0CBD990CE19
:1017A000109230048DCE10928F0210928E02809192
:1017B0008E0290918F022091890230918A02232B10
:1017C00051F5833091053CF5FC01ED5EFD4F308114
:1017D000FC01E557FD4F20813217B9F0D0928A0203
:1017E000C092890268EC70E080E090E09FD861E0F0
:1017F00080E0DEDA83E592E0A9D984D964EF71E074
:1018000080E090E093D83EDAD2CF019690938F0299
:1018100080938E02CCCF039709F03ECED0929102F6
:10182000C092900268EC70E080E090E07FD861E0C8
:1018300080E0BEDA84E692E089D961E08DE00E9422
:10184000020464EF71E080E090E070D8C0918702FC
:10185000D0918802C53BD10574F4CE010E943401B9
:101860006FE070E080E090E061D82196D09388022C
:10187000C0938702EBCF60E080E09ADA03DA83E777
:1018800092E064D909CE60E08DE00E9402043AD96A
:101890000E944103E9CD617039CF052E97FB16F404
:1018A00000940FD057FD05D024D007FC02D046F499
:1018B00008C050954095309521953F4F4F4F5F4F51
:1018C000089590958095709561957F4F8F4F9F4FAC
:1018D000089531D0A59F900DB49F900DA49F800DC9
:1018E000911D11240895B7FFF4CFF3DF821B930BF2
:1018F0000895A1E21A2EAA1BBB1BFD010DC0AA1F51
:10190000BB1FEE1FFF1FA217B307E407F50720F068
:10191000A21BB30BE40BF50B661F771F881F991FE3
:101920001A9469F760957095809590959B01AC012C
:10193000BD01CF010895A29FB001B39FC001A39F35
:10194000700D811D1124911DB29F700D811D1124F8
:10195000911D0895991B79E004C0991F961708F00E
:10196000961B881F7A95C9F780950895EE0FFF1F83
:10197000881F8BBF0790F691E02D1994F894FFCF44
:101980003E3F4036373839313233343536373839DF
:101990002A302332343600000000D60241026E02A3
:1019A00022039F027D029102000000006E042F04BA
:1019B000000400000000E60641027F057E050D0AD6
:1019C00000494E475245534520434C4156453A0045
:1019D0002A2000636C61766520696E636F727265A0
:1019E00063746100636C61766520636F7272656316
:0E19F0007461004269656E76656E69646F0011
:00000001FF
